:020000001628C0
:0E0006008312031321088A00200882000800DC
:1000140003208A110A128000840AA00A0319A10A83
:08002400F003031D0A28080087
:10002C0083160313860183128601013086000B3080
:10003C00FB002630FC005D30FD00FD0B2328FC0B83
:10004C002328FB0B232800000000023086000B3015
:10005C00FB002630FC005D30FD00FD0B3328FC0B53
:10006C003328FB0B332800000000043086000B30D3
:10007C00FB002630FC005D30FD00FD0B4328FC0B23
:10008C004328FB0B432800000000083086000B308F
:10009C00FB002630FC005D30FD00FD0B5328FC0BF3
:0E00AC005328FB0B5328000000001B285C2883
:02400E004A2F37
:00000001FF
