:020000001628C0
:0E0006008312031321088A00200882000800DC
:1000140003208A110A128000840AA00A0319A10A83
:08002400F003031D0A28080087
:10002C00831603138801831288013F308800153032
:10003C00FB004B30FC00BE30FD00FD0B2328FC0BFD
:10004C002328FB0B23280000063088001530FB000A
:10005C004B30FC00BE30FD00FD0B3228FC0B32286F
:10006C00FB0B322800005B3088001530FB004B3056
:10007C00FC00BE30FD00FD0B4128FC0B4128FB0BA6
:10008C00412800004F3088001530FB004B30FC003D
:10009C00BE30FD00FD0B5028FC0B5028FB0B5028EC
:1000AC000000663088001530FB004B30FC00BE3081
:1000BC00FD00FD0B5F28FC0B5F28FB0B5F2800008D
:1000CC006D3088001530FB004B30FC00BE30FD005D
:1000DC00FD0B6E28FC0B6E28FB0B6E2800007D3090
:1000EC0088001530FB004B30FC00BE30FD00FD0BD2
:1000FC007D28FC0B7D28FB0B7D2800000730880039
:10010C001530FB004B30FC00BE30FD00FD0B8C2885
:10011C00FC0B8C28FB0B8C2800007F3088001530E2
:10012C00FB004B30FC00BE30FD00FD0B9B28FC0B94
:10013C009B28FB0B9B2800006F3088001530FB00C0
:10014C004B30FC00BE30FD00FD0BAA28FC0BAA288E
:10015C00FB0BAA280000773088001530FB004B30D1
:10016C00FC00BE30FD00FD0BB928FC0BB928FB0BC5
:10017C00B92800007C3088001530FB004B30FC00A7
:10018C00BE30FD00FD0BC828FC0BC828FB0BC82893
:10019C000000393088001530FB004B30FC00BE30BD
:1001AC00FD00FD0BD728FC0BD728FB0BD728000034
:1001BC005E3088001530FB004B30FC00BE30FD007B
:1001CC00FD0BE628FC0BE628FB0BE628000079303B
:1001DC0088001530FB004B30FC00BE30FD00FD0BE1
:1001EC00F528FC0BF528FB0BF52800007130880076
:1001FC001530FB004B30FC00BE30FD00FD0B04291C
:0E020C00FC0B0429FB0B042900001B280C2905
:02400E004A2F37
:00000001FF
